S01800004763634170706C69636174696F6E31312E7372656329
S11300000C942A000C9434000C9434000C943400A6
S11300100C9434000C9434000C9434000C9434008C
S11300200C9434000C9434000C9434000C9434007C
S11300300C9434000C9434000C9434000C9434006C
S11300400C9434000C9434000C9434000C9434005C
S11300500C94340011241FBECFE5D8E0DEBFCDBF21
S11300600E949B000C94B4000C9400008BB3846039
S11300708BBB8DEE92E00197F1F700C000008BB3CB
S11300808B7F8BBB0895CF93C82F17BA8BB3826035
S11300908BBB8BB38E7F8BBB02C00E943600B7999B
S11300A0FCCF81E087BBC8BB8BB38C7F8BBB0E942A
S11300B0360018BACF910895CF93C82F17BA8BB3CF
S11300C082608BBB8BB38E7F8BBB02C00E943600D9
S11300D0B799FCCF81E087BBC8BB8BB381608BBB76
S11300E08BB38D7F8BBB0E94360018BACF910895D5
S11300F081E00E9443008DEE92E00197F1F700C089
S1130100000088E30E9443008DEE92E00197F1F72E
S113011000C000008EE00E9443008DEE92E0019743
S1130120F1F700C00000089510BC89B988E18AB9CC
S11301308EE080BD08958FEF8ABB81B3816081BB5F
S113014081B38E7F81BB89E10E9494000E94780074
S11301505F9BFECF8CB10E945C008FE493EC01970F
S10F0160F1F700C00000F4CFF894FFCFCA
S9030000FC
