S01700004763634170706C69636174696F6E392E7372656353
S11300000C942A000C9434000C9434000C943400A6
S11300100C9434000C9434000C9434000C9434008C
S11300200C9434000C9434000C9434000C9434007C
S11300300C9434000C9434000C9434000C9434006C
S11300400C9434000C9434000C9434000C9434005C
S11300500C94340011241FBECFE5D8E0DEBFCDBF21
S11300600E943D000C9410010C94000010BC89B94E
S113007088E18AB98EE080BD08958FEF87BB1ABAF4
S113008081B3826081BB81B38E7F81BB82B3816087
S113009082BB89E10E94360081E088BBCC9B0EC004
S11300A05D9BFECF81E38CB92FE38DE093E021507B
S11300B080409040E1F700C000002FC0CB9B0EC0F1
S11300C05D9BFECF84E38CB92FE38DE093E0215058
S11300D080409040E1F700C000001FC0CA9B0EC0E2
S11300E05D9BFECF87E38CB92FE38DE093E0215035
S11300F080409040E1F700C000000FC0C99B0DC0D4
S11301005D9BFECF8AE28CB92FE38DE093E0215012
S113011080409040E1F700C0000082E088BBCC9BA7
S11301200EC05D9BFECF82E38CB92FE38DE093E09C
S1130130215080409040E1F700C000002FC0CB9BCD
S11301400EC05D9BFECF85E38CB92FE38DE093E079
S1130150215080409040E1F700C000001FC0CA9BBE
S11301600EC05D9BFECF88E38CB92FE38DE093E056
S1130170215080409040E1F700C000000FC0C99BAF
S11301800DC05D9BFECF80E28CB92FE38DE093E040
S1130190215080409040E1F700C0000084E088BB1B
S11301A0CC9B0EC05D9BFECF83E38CB92FE38DE027
S11301B093E0215080409040E1F700C000006CCFF4
S11301C0CB9B0EC05D9BFECF86E38CB92FE38DE005
S11301D093E0215080409040E1F700C000005CCFE4
S11301E0CA9B0EC05D9BFECF89E38CB92FE38DE0E3
S11301F093E0215080409040E1F700C000004CCFD4
S1130200C99B4ACF5D9BFECF83E28CB92FE38DE07F
S113021093E0215080409040E1F700C000003CCFC3
S1070220F894FFCF7C
S9030000FC
